:020000040000FA
:060000000A128A11FC2F18
:100EDE000A128A1178270A128A11742F0A128A119D
:100EEE000028073083160317880089010F308316F8
:100EFE00031385008614061586150616071087102F
:100F0E000711071387170810881008128812081384
:100F1E0088138312031385018601870188018901D5
:100F2E00831603130F178F160F160F1481131E300F
:100F3E00950096141615961516169F131F129F12CE
:100F4E00831203131F083F3980389F001F14C330CC
:100F5E009F052130F000F00BB22F831603130715F7
:100F6E008714F93092003F30831203139705170848
:100F7E00F0390C3897000F3095001D08F0390C38F9
:100F8E009D000F309B00CF3097051D129D128C10C7
:100F9E000330920412158C1CD52FD62FD22F8C1005
:100FAE0083160313071187101812181583160317CB
:100FBE008715D2308316031399009A0183120313F7
:100FCE009817181318168316031398168312031303
:100FDE008C120C128B170B17831603130C1783121C
:100FEE0003130C130B148B15080083010A128A11BC
:020FFE006F2F53
:04400E00C420FF3F8C
:00000001FF
